{
  "_format": "hh-sol-artifact-1",
  "contractName": "TetrisScore",
  "sourceName": "contracts/TetrisScore.sol",
  "abi": [
    {
      "anonymous": false,
      "inputs": [
        {
          "indexed": true,
          "internalType": "address",
          "name": "player",
          "type": "address"
        },
        {
          "indexed": false,
          "internalType": "uint256",
          "name": "score",
          "type": "uint256"
        },
        {
          "indexed": false,
          "internalType": "uint256",
          "name": "lines",
          "type": "uint256"
        },
        {
          "indexed": false,
          "internalType": "string",
          "name": "playerName",
          "type": "string"
        },
        {
          "indexed": false,
          "internalType": "uint256",
          "name": "timestamp",
          "type": "uint256"
        }
      ],
      "name": "ScoreSubmitted",
      "type": "event"
    },
    {
      "inputs": [],
      "name": "getAllScores",
      "outputs": [
        {
          "components": [
            {
              "internalType": "address",
              "name": "player",
              "type": "address"
            },
            {
              "internalType": "uint256",
              "name": "score",
              "type": "uint256"
            },
            {
              "internalType": "uint256",
              "name": "lines",
              "type": "uint256"
            },
            {
              "internalType": "string",
              "name": "playerName",
              "type": "string"
            },
            {
              "internalType": "uint256",
              "name": "timestamp",
              "type": "uint256"
            }
          ],
          "internalType": "struct TetrisScore.ScoreEntry[]",
          "name": "",
          "type": "tuple[]"
        }
      ],
      "stateMutability": "view",
      "type": "function"
    },
    {
      "inputs": [
        {
          "internalType": "uint256",
          "name": "_score",
          "type": "uint256"
        },
        {
          "internalType": "uint256",
          "name": "_lines",
          "type": "uint256"
        },
        {
          "internalType": "string",
          "name": "_playerName",
          "type": "string"
        }
      ],
      "name": "submitScore",
      "outputs": [],
      "stateMutability": "nonpayable",
      "type": "function"
    },
    {
      "inputs": [
        {
          "internalType": "uint256",
          "name": "",
          "type": "uint256"
        }
      ],
      "name": "topScores",
      "outputs": [
        {
          "internalType": "address",
          "name": "player",
          "type": "address"
        },
        {
          "internalType": "uint256",
          "name": "score",
          "type": "uint256"
        },
        {
          "internalType": "uint256",
          "name": "lines",
          "type": "uint256"
        },
        {
          "internalType": "string",
          "name": "playerName",
          "type": "string"
        },
        {
          "internalType": "uint256",
          "name": "timestamp",
          "type": "uint256"
        }
      ],
      "stateMutability": "view",
      "type": "function"
    }
  ],
  "bytecode": "0x608060405234801561001057600080fd5b506115f6806100206000396000f3fe608060405234801561001057600080fd5b50600436106100415760003560e01c80631de354f5146100465780635112711a1461006257806387d0619614610096575b600080fd5b610060600480360381019061005b9190610c97565b6100b4565b005b61007c60048036038101906100779190610d06565b61045b565b60405161008d959493929190610e02565b60405180910390f35b61009e610549565b6040516100ab9190610ffc565b60405180910390f35b6014815111156100f9576040517f08c379a00000000000000000000000000000000000000000000000000000000081526004016100f09061106a565b60405180910390fd5b6000610104336106ae565b905060008112610200576000819050600081815481106101275761012661108a565b5b9060005260206000209060050201600101548511156101fa5784600082815481106101555761015461108a565b5b906000526020600020906005020160010181905550836000828154811061017f5761017e61108a565b5b90600052602060002090600502016002018190555082600082815481106101a9576101a861108a565b5b906000526020600020906005020160030190816101c691906112c5565b5042600082815481106101dc576101db61108a565b5b9060005260206000209060050201600401819055506101f9610781565b5b50610401565b60006040518060a001604052803373ffffffffffffffffffffffffffffffffffffffff168152602001868152602001858152602001848152602001428152509050600a600080549050101561030557600081908060018154018082558091505060019003906000526020600020906005020160009091909190915060008201518160000160006101000a81548173ffffffffffffffffffffffffffffffffffffffff021916908373ffffffffffffffffffffffffffffffffffffffff160217905550602082015181600101556040820151816002015560608201518160030190816102eb91906112c5565b50608082015181600401555050610300610781565b6103ff565b6000600160008054905061031991906113c6565b8154811061032a5761032961108a565b5b9060005260206000209060050201600101548511156103fe57806000600160008054905061035891906113c6565b815481106103695761036861108a565b5b906000526020600020906005020160008201518160000160006101000a81548173ffffffffffffffffffffffffffffffffffffffff021916908373ffffffffffffffffffffffffffffffffffffffff160217905550602082015181600101556040820151816002015560608201518160030190816103e791906112c5565b50608082015181600401559050506103fd610781565b5b5b505b3373ffffffffffffffffffffffffffffffffffffffff167f551139763108776432a8a0fc9f2fb67f2c83c8193d7a92a6bc75a6b7ed3fb0598585854260405161044d94939291906113fa565b60405180910390a250505050565b6000818154811061046b57600080fd5b90600052602060002090600502016000915090508060000160009054906101000a900473ffffffffffffffffffffffffffffffffffffffff16908060010154908060020154908060030180546104c0906110e8565b80601f01602080910402602001604051908101604052809291908181526020018280546104ec906110e8565b80156105395780601f1061050e57610100808354040283529160200191610539565b820191906000526020600020905b81548152906001019060200180831161051c57829003601f168201915b5050505050908060040154905085565b60606000805480602002602001604051908101604052809291908181526020016000905b828210156106a557838290600052602060002090600502016040518060a00160405290816000820160009054906101000a900473ffffffffffffffffffffffffffffffffffffffff1673ffffffffffffffffffffffffffffffffffffffff1673ffffffffffffffffffffffffffffffffffffffff168152602001600182015481526020016002820154815260200160038201805461060a906110e8565b80601f0160208091040260200160405190810160405280929190818152602001828054610636906110e8565b80156106835780601f1061065857610100808354040283529160200191610683565b820191906000526020600020905b81548152906001019060200180831161066657829003601f168201915b505050505081526020016004820154815250508152602001906001019061056d565b50505050905090565b600080600090505b600080549050811015610757578273ffffffffffffffffffffffffffffffffffffffff16600082815481106106ee576106ed61108a565b5b906000526020600020906005020160000160009054906101000a900473ffffffffffffffffffffffffffffffffffffffff1673ffffffffffffffffffffffffffffffffffffffff1603610744578091505061077c565b808061074f90611446565b9150506106b6565b507fffffffffffffffffffffffffffffffffffffffffffffffffffffffffffffffff90505b919050565b60008080549050905060005b81811015610b035760005b6001836107a591906113c6565b811015610aef5760006001826107bb919061148e565b815481106107cc576107cb61108a565b5b906000526020600020906005020160010154600082815481106107f2576107f161108a565b5b9060005260206000209060050201600101541015610adc57600080828154811061081f5761081e61108a565b5b90600052602060002090600502016040518060a00160405290816000820160009054906101000a900473ffffffffffffffffffffffffffffffffffffffff1673ffffffffffffffffffffffffffffffffffffffff1673ffffffffffffffffffffffffffffffffffffffff16815260200160018201548152602001600282015481526020016003820180546108b2906110e8565b80601f01602080910402602001604051908101604052809291908181526020018280546108de906110e8565b801561092b5780601f106109005761010080835404028352916020019161092b565b820191906000526020600020905b81548152906001019060200180831161090e57829003601f168201915b505050505081526020016004820154815250509050600060018361094f919061148e565b815481106109605761095f61108a565b5b9060005260206000209060050201600083815481106109825761098161108a565b5b90600052602060002090600502016000820160009054906101000a900473ffffffffffffffffffffffffffffffffffffffff168160000160006101000a81548173ffffffffffffffffffffffffffffffffffffffff021916908373ffffffffffffffffffffffffffffffffffffffff160217905550600182015481600101556002820154816002015560038201816003019081610a1f91906114d8565b5060048201548160040155905050806000600184610a3d919061148e565b81548110610a4e57610a4d61108a565b5b906000526020600020906005020160008201518160000160006101000a81548173ffffffffffffffffffffffffffffffffffffffff021916908373ffffffffffffffffffffffffffffffffffffffff16021790555060208201518160010155604082015181600201556060820151816003019081610acc91906112c5565b5060808201518160040155905050505b8080610ae790611446565b915050610798565b508080610afb90611446565b91505061078d565b5050565b6000604051905090565b600080fd5b600080fd5b6000819050919050565b610b2e81610b1b565b8114610b3957600080fd5b50565b600081359050610b4b81610b25565b92915050565b600080fd5b600080fd5b6000601f19601f8301169050919050565b7f4e487b7100000000000000000000000000000000000000000000000000000000600052604160045260246000fd5b610ba482610b5b565b810181811067ffffffffffffffff82111715610bc357610bc2610b6c565b5b80604052505050565b6000610bd6610b07565b9050610be28282610b9b565b919050565b600067ffffffffffffffff821115610c0257610c01610b6c565b5b610c0b82610b5b565b9050602081019050919050565b82818337600083830152505050565b6000610c3a610c3584610be7565b610bcc565b905082815260208101848484011115610c5657610c55610b56565b5b610c61848285610c18565b509392505050565b600082601f830112610c7e57610c7d610b51565b5b8135610c8e848260208601610c27565b91505092915050565b600080600060608486031215610cb057610caf610b11565b5b6000610cbe86828701610b3c565b9350506020610ccf86828701610b3c565b925050604084013567ffffffffffffffff811115610cf057610cef610b16565b5b610cfc86828701610c69565b9150509250925092565b600060208284031215610d1c57610d1b610b11565b5b6000610d2a84828501610b3c565b91505092915050565b600073ffffffffffffffffffffffffffffffffffffffff82169050919050565b6000610d5e82610d33565b9050919050565b610d6e81610d53565b82525050565b610d7d81610b1b565b82525050565b600081519050919050565b600082825260208201905092915050565b60005b83811015610dbd578082015181840152602081019050610da2565b60008484015250505050565b6000610dd482610d83565b610dde8185610d8e565b9350610dee818560208601610d9f565b610df781610b5b565b840191505092915050565b600060a082019050610e176000830188610d65565b610e246020830187610d74565b610e316040830186610d74565b8181036060830152610e438185610dc9565b9050610e526080830184610d74565b9695505050505050565b600081519050919050565b600082825260208201905092915050565b6000819050602082019050919050565b610e9181610d53565b82525050565b610ea081610b1b565b82525050565b600082825260208201905092915050565b6000610ec282610d83565b610ecc8185610ea6565b9350610edc818560208601610d9f565b610ee581610b5b565b840191505092915050565b600060a083016000830151610f086000860182610e88565b506020830151610f1b6020860182610e97565b506040830151610f2e6040860182610e97565b5060608301518482036060860152610f468282610eb7565b9150506080830151610f5b6080860182610e97565b508091505092915050565b6000610f728383610ef0565b905092915050565b6000602082019050919050565b6000610f9282610e5c565b610f9c8185610e67565b935083602082028501610fae85610e78565b8060005b85811015610fea5784840389528151610fcb8582610f66565b9450610fd683610f7a565b925060208a01995050600181019050610fb2565b50829750879550505050505092915050565b600060208201905081810360008301526110168184610f87565b905092915050565b7f4e616d6520746f6f206c6f6e6700000000000000000000000000000000000000600082015250565b6000611054600d83610d8e565b915061105f8261101e565b602082019050919050565b6000602082019050818103600083015261108381611047565b9050919050565b7f4e487b7100000000000000000000000000000000000000000000000000000000600052603260045260246000fd5b7f4e487b7100000000000000000000000000000000000000000000000000000000600052602260045260246000fd5b6000600282049050600182168061110057607f821691505b602082108103611113576111126110b9565b5b50919050565b60008190508160005260206000209050919050565b60006020601f8301049050919050565b600082821b905092915050565b60006008830261117b7fffffffffffffffffffffffffffffffffffffffffffffffffffffffffffffffff8261113e565b611185868361113e565b95508019841693508086168417925050509392505050565b6000819050919050565b60006111c26111bd6111b884610b1b565b61119d565b610b1b565b9050919050565b6000819050919050565b6111dc836111a7565b6111f06111e8826111c9565b84845461114b565b825550505050565b600090565b6112056111f8565b6112108184846111d3565b505050565b5b81811015611234576112296000826111fd565b600181019050611216565b5050565b601f8211156112795761124a81611119565b6112538461112e565b81016020851015611262578190505b61127661126e8561112e565b830182611215565b50505b505050565b600082821c905092915050565b600061129c6000198460080261127e565b1980831691505092915050565b60006112b5838361128b565b9150826002028217905092915050565b6112ce82610d83565b67ffffffffffffffff8111156112e7576112e6610b6c565b5b6112f182546110e8565b6112fc828285611238565b600060209050601f83116001811461132f576000841561131d578287015190505b61132785826112a9565b86555061138f565b601f19841661133d86611119565b60005b8281101561136557848901518255600182019150602085019450602081019050611340565b86831015611382578489015161137e601f89168261128b565b8355505b6001600288020188555050505b505050505050565b7f4e487b7100000000000000000000000000000000000000000000000000000000600052601160045260246000fd5b60006113d182610b1b565b91506113dc83610b1b565b92508282039050818111156113f4576113f3611397565b5b92915050565b600060808201905061140f6000830187610d74565b61141c6020830186610d74565b818103604083015261142e8185610dc9565b905061143d6060830184610d74565b95945050505050565b600061145182610b1b565b91507fffffffffffffffffffffffffffffffffffffffffffffffffffffffffffffffff820361148357611482611397565b5b600182019050919050565b600061149982610b1b565b91506114a483610b1b565b92508282019050808211156114bc576114bb611397565b5b92915050565b6000815490506114d1816110e8565b9050919050565b8181036114e65750506115be565b6114ef826114c2565b67ffffffffffffffff81111561150857611507610b6c565b5b61151282546110e8565b61151d828285611238565b6000601f83116001811461154c576000841561153a578287015490505b61154485826112a9565b8655506115b7565b601f19841661155a87611119565b965061156586611119565b60005b8281101561158d57848901548255600182019150600185019450602081019050611568565b868310156115aa57848901546115a6601f89168261128b565b8355505b6001600288020188555050505b5050505050505b56fea264697066735822122068af814a76e6eace6f1ab800f5353e3a32a832be847d12fa8aaf3119b62e110364736f6c63430008140033",
  "linkReferences": {},
  "deployedLinkReferences": {}
}