{
  "_format": "hh-sol-artifact-1",
  "contractName": "TetrisScore",
  "sourceName": "contracts/TetrisScore.sol",
  "abi": [
    {
      "inputs": [],
      "name": "getAllScores",
      "outputs": [
        {
          "components": [
            {
              "internalType": "address",
              "name": "player",
              "type": "address"
            },
            {
              "internalType": "uint256",
              "name": "score",
              "type": "uint256"
            },
            {
              "internalType": "uint256",
              "name": "lines",
              "type": "uint256"
            },
            {
              "internalType": "string",
              "name": "playerName",
              "type": "string"
            },
            {
              "internalType": "uint256",
              "name": "timestamp",
              "type": "uint256"
            }
          ],
          "internalType": "struct TetrisScore.ScoreEntry[]",
          "name": "",
          "type": "tuple[]"
        }
      ],
      "stateMutability": "view",
      "type": "function"
    },
    {
      "inputs": [
        {
          "internalType": "uint256",
          "name": "_score",
          "type": "uint256"
        },
        {
          "internalType": "uint256",
          "name": "_lines",
          "type": "uint256"
        },
        {
          "internalType": "string",
          "name": "_playerName",
          "type": "string"
        }
      ],
      "name": "submitScore",
      "outputs": [],
      "stateMutability": "nonpayable",
      "type": "function"
    },
    {
      "inputs": [
        {
          "internalType": "uint256",
          "name": "",
          "type": "uint256"
        }
      ],
      "name": "topScores",
      "outputs": [
        {
          "internalType": "address",
          "name": "player",
          "type": "address"
        },
        {
          "internalType": "uint256",
          "name": "score",
          "type": "uint256"
        },
        {
          "internalType": "uint256",
          "name": "lines",
          "type": "uint256"
        },
        {
          "internalType": "string",
          "name": "playerName",
          "type": "string"
        },
        {
          "internalType": "uint256",
          "name": "timestamp",
          "type": "uint256"
        }
      ],
      "stateMutability": "view",
      "type": "function"
    }
  ],
  "bytecode": "0x608060405234801561001057600080fd5b506112c9806100206000396000f3fe608060405234801561001057600080fd5b50600436106100415760003560e01c80631de354f5146100465780635112711a1461006257806387d0619614610096575b600080fd5b610060600480360381019061005b9190610a22565b6100b4565b005b61007c60048036038101906100779190610a91565b6102b9565b60405161008d959493929190610b8d565b60405180910390f35b61009e6103a7565b6040516100ab9190610d87565b60405180910390f35b60006040518060a001604052803373ffffffffffffffffffffffffffffffffffffffff168152602001858152602001848152602001838152602001428152509050600a60008054905010156101b957600081908060018154018082558091505060019003906000526020600020906005020160009091909190915060008201518160000160006101000a81548173ffffffffffffffffffffffffffffffffffffffff021916908373ffffffffffffffffffffffffffffffffffffffff1602179055506020820151816001015560408201518160020155606082015181600301908161019f9190610fb5565b506080820151816004015550506101b461050c565b6102b3565b600060016000805490506101cd91906110b6565b815481106101de576101dd6110ea565b5b9060005260206000209060050201600101548411156102b257806000600160008054905061020c91906110b6565b8154811061021d5761021c6110ea565b5b906000526020600020906005020160008201518160000160006101000a81548173ffffffffffffffffffffffffffffffffffffffff021916908373ffffffffffffffffffffffffffffffffffffffff1602179055506020820151816001015560408201518160020155606082015181600301908161029b9190610fb5565b50608082015181600401559050506102b161050c565b5b5b50505050565b600081815481106102c957600080fd5b90600052602060002090600502016000915090508060000160009054906101000a900473ffffffffffffffffffffffffffffffffffffffff169080600101549080600201549080600301805461031e90610dd8565b80601f016020809104026020016040519081016040528092919081815260200182805461034a90610dd8565b80156103975780601f1061036c57610100808354040283529160200191610397565b820191906000526020600020905b81548152906001019060200180831161037a57829003601f168201915b5050505050908060040154905085565b60606000805480602002602001604051908101604052809291908181526020016000905b8282101561050357838290600052602060002090600502016040518060a00160405290816000820160009054906101000a900473ffffffffffffffffffffffffffffffffffffffff1673ffffffffffffffffffffffffffffffffffffffff1673ffffffffffffffffffffffffffffffffffffffff168152602001600182015481526020016002820154815260200160038201805461046890610dd8565b80601f016020809104026020016040519081016040528092919081815260200182805461049490610dd8565b80156104e15780601f106104b6576101008083540402835291602001916104e1565b820191906000526020600020905b8154815290600101906020018083116104c457829003601f168201915b50505050508152602001600482015481525050815260200190600101906103cb565b50505050905090565b60008080549050905060005b8181101561088e5760005b60018361053091906110b6565b81101561087a5760006001826105469190611119565b81548110610557576105566110ea565b5b9060005260206000209060050201600101546000828154811061057d5761057c6110ea565b5b90600052602060002090600502016001015410156108675760008082815481106105aa576105a96110ea565b5b90600052602060002090600502016040518060a00160405290816000820160009054906101000a900473ffffffffffffffffffffffffffffffffffffffff1673ffffffffffffffffffffffffffffffffffffffff1673ffffffffffffffffffffffffffffffffffffffff168152602001600182015481526020016002820154815260200160038201805461063d90610dd8565b80601f016020809104026020016040519081016040528092919081815260200182805461066990610dd8565b80156106b65780601f1061068b576101008083540402835291602001916106b6565b820191906000526020600020905b81548152906001019060200180831161069957829003601f168201915b50505050508152602001600482015481525050905060006001836106da9190611119565b815481106106eb576106ea6110ea565b5b90600052602060002090600502016000838154811061070d5761070c6110ea565b5b90600052602060002090600502016000820160009054906101000a900473ffffffffffffffffffffffffffffffffffffffff168160000160006101000a81548173ffffffffffffffffffffffffffffffffffffffff021916908373ffffffffffffffffffffffffffffffffffffffff1602179055506001820154816001015560028201548160020155600382018160030190816107aa9190611163565b50600482015481600401559050508060006001846107c89190611119565b815481106107d9576107d86110ea565b5b906000526020600020906005020160008201518160000160006101000a81548173ffffffffffffffffffffffffffffffffffffffff021916908373ffffffffffffffffffffffffffffffffffffffff160217905550602082015181600101556040820151816002015560608201518160030190816108579190610fb5565b5060808201518160040155905050505b80806108729061124b565b915050610523565b5080806108869061124b565b915050610518565b5050565b6000604051905090565b600080fd5b600080fd5b6000819050919050565b6108b9816108a6565b81146108c457600080fd5b50565b6000813590506108d6816108b0565b92915050565b600080fd5b600080fd5b6000601f19601f8301169050919050565b7f4e487b7100000000000000000000000000000000000000000000000000000000600052604160045260246000fd5b61092f826108e6565b810181811067ffffffffffffffff8211171561094e5761094d6108f7565b5b80604052505050565b6000610961610892565b905061096d8282610926565b919050565b600067ffffffffffffffff82111561098d5761098c6108f7565b5b610996826108e6565b9050602081019050919050565b82818337600083830152505050565b60006109c56109c084610972565b610957565b9050828152602081018484840111156109e1576109e06108e1565b5b6109ec8482856109a3565b509392505050565b600082601f830112610a0957610a086108dc565b5b8135610a198482602086016109b2565b91505092915050565b600080600060608486031215610a3b57610a3a61089c565b5b6000610a49868287016108c7565b9350506020610a5a868287016108c7565b925050604084013567ffffffffffffffff811115610a7b57610a7a6108a1565b5b610a87868287016109f4565b9150509250925092565b600060208284031215610aa757610aa661089c565b5b6000610ab5848285016108c7565b91505092915050565b600073ffffffffffffffffffffffffffffffffffffffff82169050919050565b6000610ae982610abe565b9050919050565b610af981610ade565b82525050565b610b08816108a6565b82525050565b600081519050919050565b600082825260208201905092915050565b60005b83811015610b48578082015181840152602081019050610b2d565b60008484015250505050565b6000610b5f82610b0e565b610b698185610b19565b9350610b79818560208601610b2a565b610b82816108e6565b840191505092915050565b600060a082019050610ba26000830188610af0565b610baf6020830187610aff565b610bbc6040830186610aff565b8181036060830152610bce8185610b54565b9050610bdd6080830184610aff565b9695505050505050565b600081519050919050565b600082825260208201905092915050565b6000819050602082019050919050565b610c1c81610ade565b82525050565b610c2b816108a6565b82525050565b600082825260208201905092915050565b6000610c4d82610b0e565b610c578185610c31565b9350610c67818560208601610b2a565b610c70816108e6565b840191505092915050565b600060a083016000830151610c936000860182610c13565b506020830151610ca66020860182610c22565b506040830151610cb96040860182610c22565b5060608301518482036060860152610cd18282610c42565b9150506080830151610ce66080860182610c22565b508091505092915050565b6000610cfd8383610c7b565b905092915050565b6000602082019050919050565b6000610d1d82610be7565b610d278185610bf2565b935083602082028501610d3985610c03565b8060005b85811015610d755784840389528151610d568582610cf1565b9450610d6183610d05565b925060208a01995050600181019050610d3d565b50829750879550505050505092915050565b60006020820190508181036000830152610da18184610d12565b905092915050565b7f4e487b7100000000000000000000000000000000000000000000000000000000600052602260045260246000fd5b60006002820490506001821680610df057607f821691505b602082108103610e0357610e02610da9565b5b50919050565b60008190508160005260206000209050919050565b60006020601f8301049050919050565b600082821b905092915050565b600060088302610e6b7fffffffffffffffffffffffffffffffffffffffffffffffffffffffffffffffff82610e2e565b610e758683610e2e565b95508019841693508086168417925050509392505050565b6000819050919050565b6000610eb2610ead610ea8846108a6565b610e8d565b6108a6565b9050919050565b6000819050919050565b610ecc83610e97565b610ee0610ed882610eb9565b848454610e3b565b825550505050565b600090565b610ef5610ee8565b610f00818484610ec3565b505050565b5b81811015610f2457610f19600082610eed565b600181019050610f06565b5050565b601f821115610f6957610f3a81610e09565b610f4384610e1e565b81016020851015610f52578190505b610f66610f5e85610e1e565b830182610f05565b50505b505050565b600082821c905092915050565b6000610f8c60001984600802610f6e565b1980831691505092915050565b6000610fa58383610f7b565b9150826002028217905092915050565b610fbe82610b0e565b67ffffffffffffffff811115610fd757610fd66108f7565b5b610fe18254610dd8565b610fec828285610f28565b600060209050601f83116001811461101f576000841561100d578287015190505b6110178582610f99565b86555061107f565b601f19841661102d86610e09565b60005b8281101561105557848901518255600182019150602085019450602081019050611030565b86831015611072578489015161106e601f891682610f7b565b8355505b6001600288020188555050505b505050505050565b7f4e487b7100000000000000000000000000000000000000000000000000000000600052601160045260246000fd5b60006110c1826108a6565b91506110cc836108a6565b92508282039050818111156110e4576110e3611087565b5b92915050565b7f4e487b7100000000000000000000000000000000000000000000000000000000600052603260045260246000fd5b6000611124826108a6565b915061112f836108a6565b925082820190508082111561114757611146611087565b5b92915050565b60008154905061115c81610dd8565b9050919050565b818103611171575050611249565b61117a8261114d565b67ffffffffffffffff811115611193576111926108f7565b5b61119d8254610dd8565b6111a8828285610f28565b6000601f8311600181146111d757600084156111c5578287015490505b6111cf8582610f99565b865550611242565b601f1984166111e587610e09565b96506111f086610e09565b60005b82811015611218578489015482556001820191506001850194506020810190506111f3565b868310156112355784890154611231601f891682610f7b565b8355505b6001600288020188555050505b5050505050505b565b6000611256826108a6565b91507fffffffffffffffffffffffffffffffffffffffffffffffffffffffffffffffff820361128857611287611087565b5b60018201905091905056fea2646970667358221220e199d6906fb3be553aef08b816d00895c1d3d925c140d93d6dc0a9b4f0e561c564736f6c63430008140033",
  "linkReferences": {},
  "deployedLinkReferences": {}
}